:020000040800F2
:100000000050002029280008412600084D2600083D
:1000100053260008592600085F260008000000004B
:10002000000000000000000000000000652600083D
:1000300071260008000000007D26000889260008BF
:10004000712800089526000871280008712800080A
:10005000A1260008AD2600087128000871280008B4
:10006000712800087128000871280008B9260008C6
:100070007128000871280008CD260008E126000834
:100080007128000871280008F5260008712800086A
:100090007128000871280008712800080927000845
:1000A00071280008712800087128000871280008CC
:1000B00019270008712800082D270008712800085A
:1000C00071280008712800087128000871280008AC
:1000D00071280008412700087128000871280008CD
:1000E000712800087128000871280008000000002D
:1000F0000000000000000000000000000000000000
:0C01000000000000000000005FF808F1A3
:10010C0010B5054C237833B9044B13B10448AFF345
:10011C0000800123237010BDA0000020000000000F
:10012C009C78000808B5034B1BB103490348AFF397
:10013C00008008BD00000000A40000209C7800088E
:10014C0080B500AF024804F015F900BF80BD00BFB8
:10015C00F802002080B500AF00F09AFF00F074F9AF
:10016C0001F0B4FA01F07EF800F002FD00F058FD49
:10017C0000F0CCFD00BF80BD80B500AF00F0A8FA48
:10018C0000F096FC074B1B78012B05D1064B1B7816
:10019C00002B01D001F000FC00F094FD00F0FAFD02
:1001AC0000BF80BD140200202400002080B500AFE9
:1001BC0000230A4A0A49142001F0FCF80123074ADB
:1001CC000849642001F0F6F80223044A06494FF46A
:1001DC007A7001F0EFF800BF80BD00BFEC01002089
:1001EC004D010008610100088501000880B485B04C
:1001FC0000AF78600023FB6018E0FB6803F5003368
:10020C0001339B021A467B6893420CD2FB6803F5C0
:10021C0000339B021A467B68934204D3FB6803F5B8
:10022C0000339B0207E0FB680133FB60FB687F2B0C
:10023C00E3DD4FF0FF3318461437BD4680BC7047E2
:10024C00B0B58AB000AFF860B9607A6000237B6209
:10025C007B683B6203F01CFDF868FFF7C7FFF86191
:10026C003B6A9B001A46FB681344BB61B869FFF7F5
:10027C00BDFF7861204B00221A601F4AFB69936016
:10028C007A69FB69D31A9B0A01331B4AD36007F1C5
:10029C0010031946184803F0EDFD0346002B1FD040
:1002AC0003F02CFD034622E07B6A9B00BA681344E2
:1002BC001B6800221C46154622462B46F968022074
:1002CC0003F080FB0346002B06D1FB680433FB6074
:1002DC007B6A01337B6203E003F010FD034606E00A
:1002EC007A6A3B6A9A42DFDB03F0F8FC002318467B
:1002FC002837BD46B0BD00BFBC00002080B483B021
:10030C0000AF786039607B681A683B681A603B689C
:10031C001B68B3F1FF3F03D13B6800221A6006E073
:10032C007B6804337B603B6804333B60EBE700BFC6
:10033C000C37BD4680BC704780B483B000AF034619
:10034C00FB71064B1A79FB791343DAB2034B1A7122
:10035C0000BF0C37BD4680BC704700BFF8000020C2
:10036C0080B483B000AF0346FB71084B1B795AB2C3
:10037C0097F90730DB435BB213405BB2DAB2034B45
:10038C001A7100BF0C37BD4680BC7047F8000020C6
:10039C0080B400AF034B00221A7100BFBD4680BC75
:1003AC00704700BFF800002080B483B000AF244B2E
:1003BC005B6A002B02DA0123FB7137E0204B5B6A8E
:1003CC0003F08043002B02D00223FB712EE01C4B68
:1003DC005B6A03F00053002B02D00323FB7125E072
:1003EC00174B5B6A03F08053002B02D00423FB7184
:1003FC001CE0134B5B6A03F00063002B02D0052357
:10040C00FB7113E00E4B5B6A03F08063002B02D090
:10041C000623FB710AE00A4B5B6A03F00063002BB6
:10042C0002D00723FB7101E00023FB71054B012275
:10043C001A60FB7918460C37BD4680BC704700BF6C
:10044C0000100240E004424280B400AF164B5B88BF
:10045C009AB2164B5B889A4207D9134B012283F848
:10046C003520134B01221A7019E0114B1B78002B0D
:10047C0004D10D4B002283F8352010E00A4B5B8829
:10048C009BB21A46094B5B88A3F596739A4206D227
:10049C00054B002283F83520054B00221A7000BF53
:1004AC00BD4680BC704700BF00010020CC0000207E
:1004BC008801002080B582B000AF0346FB80FB882A
:1004CC00074A0849184600F05AFE03461A46064BDE
:1004DC001A70054B1B7818460837BD4680BD00BF07
:1004EC00E8000020D00000208901002080B500AF7A
:1004FC0000F006FD6C4B93F83C30DBB21A046A4BEF
:10050C00DB691344684AD361674BDB69674A9342E2
:10051C0000F2B780644BDB6941F27342934240F2C4
:10052C00B080614BDB69624AB2FBF3F39AB25E4B6B
:10053C005A805D4B5B889AB25B4B1A805A4B5B8836
:10054C009BB21A46584B1B889BB2D31A564AD3609F
:10055C00554B5B889BB25B00534A128892B2934214
:10056C001EDD514B5B889BB25B009AB24E4B1B88D5
:10057C009BB2D31A9AB24C4B9A804E4B5B781A466C
:10058C004B4B03FB02F2484B9B889BB219464FF432
:10059C00B47301FB03F3B2FBF3F3434A936202E03F
:1005AC00414B00229A80404B9B889AB23E4B5A801A
:1005BC003D4B5B889AB23F4B9B889A422FD33E4B64
:1005CC0001221A70384B93F83D30DBB21A04364BCB
:1005DC001B6A1344344A1362334B1B6A184600F0EF
:1005EC007BFE0346304A53622F4B9B6A9B092E4A73
:1005FC0013632D4B5B889BB21846FFF75BFF0346DA
:10060C001A46294B83F83420274B1B6B264A92F849
:10061C003420D2B202FB03F3284A136009E0264BC4
:10062C0000221A70204B002283F83420234B002226
:10063C001A60224B1B6803F21D53214A1360204B96
:10064C001B6803F28F231F4A13601E4B1B6803F5B4
:10065C008F5306331C4A1360184B1B689BB2164A07
:10066C005360174B1B689BB2134AD360154B1B6826
:10067C009BB2114A5361144B1B689BB20E4AD36157
:10068C0001E0094BDB69114B00221A720F4B00225F
:10069C001A740E4B00221A760C4B002283F8202081
:1006AC0000F02EFC00BF80BD000100202FFC0B00D1
:1006BC002F82AE04CC000020400100208C010020D1
:1006CC00900100209401002098010020640100207A
:1006DC0080B400AF2E4B1B78002B07D12D4B1B6920
:1006EC002D4A13602A4B01221A704DE0294B1A69CE
:1006FC00294B1B689A4244D1264B00221A80254B69
:10070C0000225A80234B00229A80224B0022DA804E
:10071C00204B00221A811F4B0022DA601D4B002255
:10072C001A611C4B00225A611A4B00229A61194B18
:10073C000022DA61174B00221A62164B00225A6211
:10074C00144B00229A62134B002283F82C20114B7D
:10075C0000221A630F4B002283F834200D4B002229
:10076C0083F835200B4B002283F83620094B0022EE
:10077C009A63084B002283F83C20064B002283F836
:10078C003D20034B00221A7000BFBD4680BC704751
:10079C009C01002000010020A001002080B582B047
:1007AC0000AF0023FB710CE0FB79F979264ADB00E2
:1007BC0013445A682548CB0003445A60FB79013333
:1007CC00FB71FB79032BEFD9002000F07FFB00209D
:1007DC0000F062FB1E4B1B681C4A52685A631B4B91
:1007EC0001221A721A4B1B68184AD2689A63174B6B
:1007FC0001221A74164B1B68144A5269DA63134BA4
:10080C0001221A76124B1B68104AD2691A640F4BDC
:10081C00012283F820200E4B1B6800225A62002113
:10082C000B4804F079FB0421094804F075FB0821FE
:10083C00074804F071FB0C21054804F06DFB00BF68
:10084C000837BD4680BD00BF400100206401002078
:10085C004C03002080B500AF0021084804F044FC94
:10086C000421064804F040FC0821044804F03CFC38
:10087C000C21024804F038FC00BF80BD4C03002062
:10088C0080B483B000AF78607B681B68B3F1804F95
:10089C0004D1054B9B6B0133034A936300BF0C37A8
:1008AC00BD4680BC704700BF0001002080B500AF82
:1008BC000021164805F0D8F80346154AD361144BAD
:1008CC009B6BDAB2124B83F83C20104B1B68002256
:1008DC005A620F4B00229A630E4B1A780E4B1A7009
:1008EC000D4B1B78012B07D1094B93F83530DBB23C
:1008FC00002B01D1FFF752FF054B1B690133044A52
:10090C00136100F069FA00BF80BD00BF0403002032
:10091C0000010020400100206401002080B500AFE0
:10092C000421114805F0A0F80346104A13620F4B3E
:10093C009B6BDAB20D4B83F83D200D4B1B78002BD3
:10094C0007D10A4B93F83530DBB2002B01D1FFF7FE
:10095C0025FF064B1B69012B03D9044B012283F89D
:10096C00362000BF80BD00BF040300200001002022
:10097C006401002080B582B000AF78607B681B6892
:10098C00B3F1804F05D17B681B7F012B01D1FFF7A1
:10099C008DFF7B681B68B3F1804F05D17B681B7F93
:1009AC00022B01D1FFF7BAFF00BF0837BD4680BD4F
:1009BC0080B582B000AF0346FB71FB79032B34D8B2
:1009CC0001A252F823F000BFE5090008FD09000858
:1009DC000B0A0008230A0008012000F077FA154BD7
:1009EC0000221A72144B5B690133134A53611DE0E8
:1009FC00002000F06BFA0F4B00221A7416E0012055
:100A0C0000F04AFA0B4B00221A760B4B9B69013310
:100A1C00094A93610AE0002000F03EFA054B0022DF
:100A2C0083F82020FFF716FF00E000BF00BF083757
:100A3C00BD4680BD640100200001002080B582B05D
:100A4C0000AF78607B681B68184A934206D17B68BC
:100A5C001B7F012B02D10020FFF7AAFF7B681B68CC
:100A6C00124A934206D17B681B7F022B02D10120D4
:100A7C00FFF79EFF7B681B680C4A934206D17B688C
:100A8C001B7F042B02D10220FFF792FF7B681B68AF
:100A9C00064A934206D17B681B7F082B02D10320A8
:100AAC00FFF786FF00BF0837BD4680BD0008004039
:100ABC0080B500AF1A4B5B889AB21A4B1B889A42CE
:100ACC0004D9174B5B889AB2164B1A80164B1B79BC
:100ADC00DAB2144B9B789A4204D2134B1B79DAB2DC
:100AEC00104B9A70104B1B79DAB20E4BDB789A4292
:100AFC0004D90D4B1B79DAB20A4BDA700A4B1B790D
:100B0C00DBB23B2B02D80120FFF716FC064B1B79FE
:100B1C00DBB28C2B02D90220FFF70EFC00BF80BD8C
:100B2C0000010020F8000020B401002080B500AFC7
:100B3C00FFF73AFC03461A46014B5A7100BF80BDC1
:100B4C00F800002080B500AF002000F029F900204B
:100B5C0000F04EF9002000F067F9002000F080F959
:100B6C00002000F099F9002000F0B0F900BF80BD22
:100B7C0080B500AF294B1B78072B4BD801A252F83C
:100B8C0023F000BFB10B0008BF0B0008CD0B000811
:100B9C00DB0B0008E90B0008F70B0008050C00083C
:100BAC00130C0008012000F0FBF81C4B01221A70FA
:100BBC0031E0002000F0F4F8184B02221A702AE001
:100BCC00012000F015F9154B03221A7023E00020C8
:100BDC0000F00EF9114B04221A701CE0012000F0F9
:100BEC0023F90E4B05221A7015E0002000F01CF9B9
:100BFC000A4B06221A700EE0012000F031F9074B67
:100C0C0007221A7007E0002000F02AF9034B082293
:100C1C001A7000E000BF00BF80BD00BFCC010020F7
:100C2C0080B500AF254B1B78052B43D801A252F899
:100C3C0023F000BF590C0008670C0008750C000865
:100C4C008D0C00089B0C0008A90C0008012000F07A
:100C5C0023F91A4B01221A702DE0002000F01CF928
:100C6C00164B02221A7026E0154B9B7DDBB2452BEE
:100C7C0002D80420FFF760FB104B03221A701AE015
:100C8C00012000F023F90D4B04221A7013E0002010
:100C9C0000F01CF9094B05221A700CE0084B9B7DE7
:100CAC00DBB20A2B02D90820FFF746FB034B0622C6
:100CBC001A7000E000BF00BF80BD00BFCD01002056
:100CCC00B401002080B500AF064B1B79002B03D07C
:100CDC00012000F0C5F802E0002000F0C1F800BFD0
:100CEC0080BD00BFF800002080B485B000AF034683
:100CFC00FB71054BFB60FB68FA791A7000BF143767
:100D0C00BD4680BC704700BFCE01002080B582B0CC
:100D1C0000AF174B1B785B00FB71164B1B78FA79F5
:100D2C009A421BD0144B1B78002B02D0012B07D0FE
:100D3C000DE0012000F078F80F4B01221A7006E04C
:100D4C00002000F071F80C4B00221A7000BF094B08
:100D5C001B780133DAB2074B1A7005E0054B002201
:100D6C001A70034B00221A7000BF0837BD4680BDB5
:100D7C00CE010020CF010020D001002080B500AFB3
:100D8C004FF40051024803F0B9FA00BF80BD00BF18
:100D9C000010014080B500AFFFF7F0FF00BF80BD31
:100DAC0080B582B000AF0346FB71FB79012B06D1F5
:100DBC0000224FF40051074803F088FA05E00122A5
:100DCC004FF40051034803F081FA00BF0837BD46C9
:100DDC0080BD00BF0010014080B500AF4FF48051C2
:100DEC00024803F08BFA00BF80BD00BF000C01402D
:100DFC0080B582B000AF0346FB71FB79012B06D1A5
:100E0C0000224FF48051074803F060FA05E00122FC
:100E1C004FF48051034803F059FA00BF0837BD4620
:100E2C0080BD00BF000C014080B582B000AF03460E
:100E3C00FB71FB79012B06D100224FF400510748BE
:100E4C0003F044FA05E001224FF40051034803F08B
:100E5C003DFA00BF0837BD4680BD00BF000C014005
:100E6C0080B582B000AF0346FB71FB79012B06D134
:100E7C0000224FF48041074803F028FA05E00122D4
:100E8C004FF48041034803F021FA00BF0837BD46F8
:100E9C0080BD00BF000C014080B582B000AF03469E
:100EAC00FB71FB79012B05D101224021064803F08F
:100EBC000DFA04E000224021034803F007FA00BFBA
:100ECC000837BD4680BD00BF000C014080B582B024
:100EDC0000AF0346FB71FB79012B05D101220421E4
:100EEC00064803F0F3F904E000220421034803F060
:100EFC00EDF900BF0837BD4680BD00BF00080140BA
:100F0C0080B500AF4021024803F0F8F900BF80BD66
:100F1C000008014080B500AF124B1B689AB2124B0F
:100F2C005A82114B9B8A9BB20F4A528A91B23C2235
:100F3C00184600F0B9F803461A460B4B9A820A4B36
:100F4C009B8A9BB21A46962302FB03F3074A82FB49
:100F5C0003121A44D212DB17D31ADAB2024B9A7567
:100F6C0000BF80BDA4010020B401002081000880D6
:100F7C0080B500AF134B5B689AB2134B1A80124BBF
:100F8C005B889BB2104A128891B26422184600F01A
:100F9C008BF803461A460C4B5A800B4B5B889BB262
:100FAC001A460A4B02FB03F3094A82FB0312121581
:100FBC00DB17D31ADBB20433DAB2034B1A7100BF5E
:100FCC0080BD00BFA4010020B4010020BD68020058
:100FDC0021508D4180B500AF104B9B689AB2104BDD
:100FEC009A810F4BDB899BB20D4A928991B2642294
:100FFC00184600F059F803461A46094BDA81084B9B
:10100C009B899BB2074A0849184600F0B8F803467A
:10101C001A46034B1A7400BF80BD00BFA401002008
:10102C00B4010020180000200000002080B500AFA3
:10103C00144BDB689AB2144BDA80134B1B899BB2AE
:10104C00114AD28891B25022184600F02DF803466E
:10105C001A460D4B1A810C4BDB889BB21A464FF487
:10106C00A57302FB03F3094A82FB03121A44D21242
:10107C00DB179B1ADBB2513BDAB2034B9A7200BFFF
:10108C0080BD00BFA4010020B401002081000880B5
:10109C0080B500AFFFF73EFFFFF76AFFFFF79AFF3F
:1010AC00FFF7C4FF00BF80BD80B485B000AF03461E
:1010BC00FB800B46BB801346FB70FA88BB88D31AA7
:1010CC00FB60BA88FB78F96801FB03F3074981FBE5
:1010DC0003011944C911DB17CB1A1344FB60FB68DD
:1010EC009BB218461437BD4680BC70478180808007
:1010FC0080B485B000AF7860084611461A460346A6
:10110C00FB700B46BB7013463B80FA78BB781344DC
:10111C005B10FB7329E0FB7B5B007A6813441B8834
:10112C009BB23A889A420BD3FB7B01335B007A6803
:10113C0013441B889BB23A889A4201D8FB7B19E076
:10114C00FB7B01335B007A6813441B889BB23A88A3
:10115C009A4203D9FB7B0133FB7001E0FB7BBB7034
:10116C00FA78BB7813445B10FB73FA78BB789A421D
:10117C00D1D9FF2318461437BD4680BC704780B5C3
:10118C0086B000AF0346B9607A60FB81BB681B88F0
:10119C009BB2FA899A4203D27B681B78DBB25DE082
:1011AC00BB6816331B889BB2FA899A4204D97B68B8
:1011BC000B331B78DBB251E0FB890B220021B868A2
:1011CC00FFF796FF0346BB75BB7D01335B00BA6826
:1011DC0013441B889AB2BB7D5B00B9680B441B8817
:1011EC009BB29A4239D0BB7DFF2B36D0BB7D0133ED
:1011FC007A6813441B78DBB21946BB7D7A681344BA
:10120C001B78DBB2CB1AFA89B97D4900B868014466
:10121C00098889B2521A03FB02F2BB7D01335B00D1
:10122C00B9680B441B889BB21846BB7D5B00B96840
:10123C000B441B889BB2C31A92FBF3F3DAB2BB7D4F
:10124C0079680B441B78DBB21344FB75FB7D402B98
:10125C0001D94023FB75FB7D00E0FF2318461837AE
:10126C00BD4680BD80B500AF194B5B889BB2184A58
:10127C00128891B232221846FFF716FF03461A461F
:10128C00134BDA80124B1B899BB21A46104B5B88AE
:10129C009BB213445B109AB20D4B1A810C4BDB6959
:1012AC00002B0ED00A4B1B6A4FF4B47203FB02F2F4
:1012BC00074BDB69B2FBF3F3DAB2054B83F82C2056
:1012CC0004E0044B5A78024B83F82C2000BF80BDFD
:1012DC0000010020CC00002080B483B000AF786007
:1012EC002C4B1B681A467B689B1A1A462A4B1A60B1
:1012FC002A4B93F828301A46274B1B6802FB03F342
:10130C001A46274BA3FB02235B09224A126813449B
:10131C001A46244B1A60214B93F829301A461E4B5F
:10132C001B6802FB03F31A461D4BA3FB02235B094C
:10133C001D4A126813441A461C4B1A60174B93F83B
:10134C002A301A46144B1B6802FB03F31A46144B43
:10135C00A3FB02235B09164A126813441A46144B6A
:10136C001A60104B1A68114B1B681A44104B1B68FF
:10137C005B101344074A13600C4B1A680C4B1B6828
:10138C001344094A1360084B1B6818460C37BD46BA
:10139C0080BC7047D4010020D8010020CC00002074
:1013AC001F85EB51DC010020E0010020E40100204E
:1013BC00E801002080B586B000AFF860B9607A60B3
:1013CC00FB7001F0A9FA03467B61FB78DB007A68BD
:1013DC0013441B78002B0DD17969FB78DB007A68FC
:1013EC001344FA680A445A60FB78DB007A681344A9
:1013FC0001221A70FB78DB007A6813445A687B6907
:10140C009A4207D8FB78DB007A68134400221A70E2
:10141C00BB68984700BF1837BD4680BD80B483B009
:10142C0000AF00237B600BE00A4A7B6813441978F9
:10143C00094A7B6813440A461A707B6801337B6047
:10144C007B682B2BF0D900BF00BF0C37BD4680BC8E
:10145C00704700BF10790008CC00002080B483B026
:10146C0000AF00237B600BE07B680133094AD15C41
:10147C00094A7B6813440A461A707B6801337B6007
:10148C007B682B2BF0D900BF00BF0C37BD4680BC4E
:10149C00704700BF54020020CC00002080B500AF84
:1014AC00044B1B680B2204491846FEF7C9FE00BF0B
:1014BC0080BD00BF28000020CC00002080B500AF0C
:1014CC00034B1B6803491846FEF718FF00BF80BD8D
:1014DC0028000020CC00002080B483B000AF002393
:1014EC007B600BE00A4A7B6813441978094A7B68D5
:1014FC0013440A461A707B6801337B607B68052BAA
:10150C00F0D900BF00BF0C37BD4680BC704700BF90
:10151C0008790008F800002080B500AF02220349CA
:10152C000348FEF78DFE00BF80BD00BFF800002011
:10153C0020F4000880B500AF02490348FEF7DEFE38
:10154C0000BF80BDF800002020F4000880B584B0F6
:10155C0000AF2A4B1B78012B4CD139237B60002325
:10156C00FB6007E0264AFB68134400221A70FB68F4
:10157C000133FB60FA687B689A42F3D3204B9622C6
:10158C001A700123FB600BE0FB68013B1D4AD15C28
:10159C001B4AFB6813440A461A70FB680133FB6054
:1015AC00FB682C2BF0D9164B1B78FB720123FB60CC
:1015BC0009E0134AFB6813441A78FB7A1344FB7254
:1015CC00FB680133FB607B68023BFA689A42F0D3FC
:1015DC007B68023B0A49FA7ACA547B68013B084A89
:1015EC000A21D154054B00221A70392204490648AD
:1015FC0004F000FF00BF1037BD4680BD2400002062
:10160C0018020020CC0000209403002080B584B088
:10161C0000AF2A4B1B78012B4CD139237B60002364
:10162C00FB6007E0264AFB68134400221A70FB6833
:10163C000133FB60FA687B689A42F3D3204B452256
:10164C001A700123FB600BE0FB68013B1D4AD15C67
:10165C001B4AFB6813440A461A70FB680133FB6093
:10166C00FB68082BF0D9164B1B78FB720123FB602F
:10167C0009E0134AFB6813441A78FB7A1344FB7293
:10168C00FB680133FB607B68023BFA689A42F0D33B
:10169C007B68023B0A49FA7ACA547B68013B084AC8
:1016AC000A21D154054B00221A70392204490648EC
:1016BC0004F0A0FE00BF1037BD4680BD2400002002
:1016CC0018020020F80000209403002080B584B09C
:1016DC0000AF7E4B1B78002B40F0F4802D237B60F9
:1016EC000023FB730023BB6009E0794ABB681344F9
:1016FC001A78FB7B1344FB73BB680133BB607B68BC
:10170C00013BBA689A42F0D37B68013B704AD35CC8
:10171C00FA7B9A4240F0D0806D4B1B78FB70FB78C3
:10172C007F2B00F3CB80472B05DA022B7CD0032BCD
:10173C0000F08180C2E0473B382B00F2BF8001A251
:10174C0052F823F051180008C9180008C9180008ED
:10175C00C9180008C9180008C9180008C9180008D9
:10176C00C9180008C9180008611800086F1800088B
:10177C007D1800088918000895180008C918000879
:10178C00C9180008C9180008C9180008C9180008A9
:10179C00C9180008C9180008C9180008C918000899
:1017AC00C9180008C9180008C9180008C918000889
:1017BC00C9180008C9180008C9180008C918000879
:1017CC00C9180008C9180008C9180008A118000891
:1017DC00C9180008C9180008C9180008C918000859
:1017EC00C9180008C9180008C9180008C918000849
:1017FC00C9180008C9180008C9180008C918000839
:10180C00C9180008C9180008C9180008C918000828
:10181C00C9180008C9180008C9180008C918000818
:10182C00AD180008B91800082A4B01221A700120C3
:10183C00FFF75AFA43E0274B00221A700220FFF7F9
:10184C0053FA3CE0FFF70AFEFFF728FE0420FFF7EF
:10185C004BFA34E00120FEF783FD0120FFF744FA38
:10186C002DE00220FEF77CFD0220FFF73DFA26E07A
:10187C00FEF78EFD0320FFF737FA20E0FFF74CFE52
:10188C000520FFF731FA1AE0FFF7C0FE0320FFF73F
:10189C002BFA14E0FFF75AFE0120FFF725FA0EE0B1
:1018AC00FFF7DCFD0320FFF71FFA08E0FFF7F6FD5A
:1018BC000220FFF719FA02E000BF00E000BF034B63
:1018CC0001221A7000BF1037BD4680BD25000020D4
:1018DC00540200201402002080B500AFFFF7EEFD8B
:1018EC00094B5B88002B03D1FFF798FDFFF7D6FD62
:1018FC00FFF720FE054B9B78002B03D1FFF7ECFD87
:10190C00FFF70AFE00BF80BDCC000020F8000020CD
:10191C0080B500AF1D4B1B78012B03D11C4B002253
:10192C001A6002E01A4B02221A60194B01225A600B
:10193C00174B00229A60164B0322DA6000221449DE
:10194C00144803F039FF0346002B01D000F090FC43
:10195C000E4B1B78012B03D10D4B02221A6002E0B7
:10196C000B4B00221A600A4B02225A60084B0022D1
:10197C00DA6004220649074803F01EFF0346002BD9
:10198C0001D000F075FC00BF80BD00BFCC00002072
:10199C000402002004030020F0B58DB008AF3923F9
:1019AC007B60304B5B889BB29C462E4B9B889BB2DA
:1019BC009E462C4BDB889BB21A462A4B93F834304C
:1019CC00DBB21946284B1B79DBB21846264B9B7DA4
:1019DC00DBB21C46244B1B7CDBB21D46224B9B7A94
:1019EC00DBB21E461F4B93F82C30DBB206930596E8
:1019FC0004950394029001910092734662461B4930
:101A0C001B4805F0CBFA1A4BFA221A70184B1B78AC
:101A1C00FB720123FB6009E0154AFB6813441A783A
:101A2C00FB7A1344FB72FB680133FB607B68023B5F
:101A3C00FA689A42F0D37B68023B0D49FA7ACA5491
:101A4C007B68013B0A4A0A21D1540A4B00221A70C6
:101A5C0039220749084804F0CDFC00BF1437BD46B5
:101A6C00F0BD00BF00010020B4010020B4780008D4
:101A7C0018020020240000209403002080B483B0BE
:101A8C0000AF7860034B01221A7000BF0C37BD46C3
:101A9C0080BC70472400002080B582B000AF786015
:101AAC002D220549054804F011FD054B00221A7042
:101ABC0000BF0837BD4680BD5402002094030020AF
:101ACC002500002080B582B000AF7860064B1B78F3
:101ADC000133DAB2044B1A701020FEF72DFC00BF54
:101AEC000837BD4680BD00BF8102002080B400AF26
:101AFC00074B01221A70074B01221A70064B002269
:101B0C001A70064B00221A7000BFBD4680BC70478D
:101B1C002400002025000020140200208102002057
:101B2C0080B500AF00F0A0FEFFF7D6FEFEF7FEFF7B
:101B3C00FFF7DCFF00F04EF800F09EFA00F06EFAB2
:101B4C0000F02AF900F0A8F900F0A2F800F03CFA35
:101B5C0000F008F9FFF7DCFE04221749174800F0E3
:101B6C00BDFF174B1B68DA68154B1B6842F001026E
:101B7C00DA600021124803F0B9FB0421104803F08D
:101B8C00B5FB2D220F49104804F0A0FC39220F4957
:101B9C000D4804F02FFCFEF7D5FF0D4B93F83630B3
:101BAC00DBB2012B05D1FEF7A1FC094B002283F817
:101BBC003620FEF7FBFAF0E7A40100208402002097
:101BCC00040300205402002094030020180200207B
:101BDC000001002080B594B000AF07F12803282243
:101BEC000021184605F0D2F907F1140300221A60FF
:101BFC005A609A60DA601A613B1D00221A605A60C2
:101C0C009A60DA600923BB624FF48033FB620023D5
:101C1C003B630123BB6301233B6402237B644FF4CE
:101C2C008033BB644FF4E013FB6407F128031846C0
:101C3C0002F0FAFB0346002B01D000F019FB0F2336
:101C4C007B610223BB610023FB614FF480633B6229
:101C5C004FF4E0637B6207F114030221184602F093
:101C6C0065FE0346002B01D000F002FB02237B60D3
:101C7C004FF44043FB603B1D184602F0EFFF034658
:101C8C00002B01D000F0F4FA00BF5037BD4680BDE8
:101C9C0080B584B000AF3B1D00221A605A609A6078
:101CAC002E4B2F4A1A602D4B4FF480729A602B4B9F
:101CBC0001221A73294B00221A75284B4FF460220B
:101CCC00DA61264B00225A60244B04221A61234805
:101CDC0000F02CFE0346002B01D000F0C9FA0323C0
:101CEC007B600123BB600723FB603B1D19461B482F
:101CFC0001F0BAF80346002B01D000F0B9FA042326
:101D0C007B600223BB603B1D1946144801F0ACF804
:101D1C000346002B01D000F0ABFA05237B600323B4
:101D2C00BB603B1D19460D4801F09EF80346002B85
:101D3C0001D000F09DFA10237B600423BB603B1D97
:101D4C001946064801F090F80346002B01D000F02C
:101D5C008FFA00BF1037BD4680BD00BF8402002043
:101D6C000024014080B500AF094B0A4A1A60084BA9
:101D7C0000225A60064B4FF4FA629A60044802F053
:101D8C00F9FA0346002B01D000F072FA00BF80BDB7
:101D9C00F80200200030004080B58AB000AF07F197
:101DAC00180300221A605A609A60DA6007F1100377
:101DBC0000221A605A603B4600221A605A609A60F0
:101DCC00DA60344B4FF080421A60324B37225A6043
:101DDC00304B00229A602F4B4FF6FF72DA602D4B7E
:101DEC0000221A612B4B00229A612A4802F0ECFF68
:101DFC000346002B01D000F03BFA4FF48053BB613B
:101E0C0007F118031946234803F06AFD0346002B1B
:101E1C0001D000F02DFA1F4803F010FA0346002BF6
:101E2C0001D000F025FA00233B6100237B6107F110
:101E3C0010031946174804F01FFA0346002B01D073
:101E4C0000F016FA02233B6001237B600023BB6089
:101E5C000323FB603B46002219460E4803F0ACFC02
:101E6C000346002B01D000F003FA00233B60022351
:101E7C007B600023FB603B4604221946054803F0B7
:101E8C009BFC0346002B01D000F0F2F900BF283771
:101E9C00BD4680BD0403002080B58EB000AF07F1B5
:101EAC00280300221A605A609A60DA6007F1200356
:101EBC0000221A605A603B1D00221A605A609A6018
:101ECC00DA601A615A619A613D4B3E4A1A603C4B8A
:101EDC0037225A603A4B00229A60394B4FF6FF7208
:101EEC00DA60374B00221A61354B00229A61344874
:101EFC0002F06AFF0346002B01D000F0B9F94FF451
:101F0C008053BB6207F1280319462D4803F0E8FC07
:101F1C000346002B01D000F0ABF9294802F0A3FFD7
:101F2C000346002B01D000F0A3F900233B620023F1
:101F3C007B6207F120031946214804F09DF9034602
:101F4C00002B01D000F094F910237B600023BB60C0
:101F5C000223FB6000237B613B1D002219461848BD
:101F6C0003F0D2FB0346002B01D000F081F93B1D9E
:101F7C0004221946124803F0C7FB0346002B01D07C
:101F8C0000F076F900237B600023FB603B1D0822E8
:101F9C0019460B4803F0B8FB0346002B01D000F0A8
:101FAC0067F93B1D0C221946054803F0ADFB0346AF
:101FBC00002B01D000F05CF900BF3837BD4680BD66
:101FCC004C0300200008004080B500AF114B124AB2
:101FDC001A60104B4FF416525A600E4B00229A6046
:101FEC000C4B0022DA600B4B00221A61094B0C22BD
:101FFC005A61084B00229A61064B0022DA610548AF
:10200C0004F0AAF90346002B01D000F031F900BF0F
:10201C0080BD00BF940300200038014080B582B021
:10202C0000AF144B5B69134A43F001035361114B2E
:10203C005B6903F001037B607B68002200210B20AD
:10204C0001F0EBF90B2001F004FA002200210E2024
:10205C0001F0E3F90E2001F0FCF9002200210F2021
:10206C0001F0DBF90F2001F0F4F900BF0837BD4691
:10207C0080BD00BF0010024080B588B000AF07F1F2
:10208C00100300221A605A609A60DA60734B9B69E5
:10209C00724A43F010039361704B9B6903F0100379
:1020AC00FB60FB686D4B9B696C4A43F020039361AA
:1020BC006A4B9B6903F02003BB60BB68674B9B6951
:1020CC00664A43F004039361644B9B6903F0040379
:1020DC007B607B68614B9B69604A43F008039361AA
:1020EC005E4B9B6903F008033B603B6800224FF496
:1020FC0000515B4802F0EAF8002240F2C71159483F
:10210C0002F0E4F800224FF6FF51574802F0DEF8D7
:10211C004FF400533B6101237B610023BB6103231C
:10212C00FB6107F1100319464D4801F04BFF4FF4CA
:10213C0040433B6100237B610023BB6107F110032B
:10214C001946474801F03EFF47233B6101237B6161
:10215C000023BB610323FB6107F1100319464148BF
:10216C0001F030FF80233B6111237B610023BB61B5
:10217C000223FB6107F1100319463A4801F022FFD4
:10218C0003233B6101237B610023BB610323FB61C0
:10219C0007F110031946344801F014FF4FF6FC43C5
:1021AC003B6101237B610023BB610223FB6107F1CF
:1021BC00100319462C4801F005FF4FF480733B6166
:1021CC0001237B610023BB610223FB6107F1100338
:1021DC001946244801F0F6FE4FF400633B610023DE
:1021EC007B610023BB6107F1100319461D4801F008
:1021FC00E9FE4FF480533B6102237B610323FB61B7
:10220C0007F110031946174801F0DCFE4FF48073F8
:10221C003B6111237B610023BB610223FB6107F14E
:10222C0010031946104801F0CDFE4FF400733B61CA
:10223C000E4B7B610023BB6107F1100319460A4862
:10224C0001F0C0FE00220021172001F0E6F8172053
:10225C0001F0FFF800BF2037BD4680BD00100240E2
:10226C000010014000080140000C0140000011105A
:10227C0080B400AF00BFBD4680BC704780B584B051
:10228C0000AF224B9B69214A43F0010393611F4B22
:10229C009B6903F00103BB60BB681C4BDB691B4AE9
:1022AC0043F08053D361194BDB6903F080537B609F
:1022BC007B68042001F0A6F800220021012001F027
:1022CC00ACF8012001F0C5F800220021042001F037
:1022DC00A4F8042001F0BDF800220021052001F033
:1022EC009CF8052001F0B5F8094B5B68FB60FB68B6
:1022FC0023F0E063FB60FB6843F00073FB60044A6F
:10230C00FB68536000BF1037BD4680BD0010024013
:10231C000000014080B588B000AF786007F1100371
:10232C0000221A605A609A60DA607B681B682C4A3B
:10233C00934251D12B4B9B692A4A43F4007393610E
:10234C00284B9B6903F40073FB60FB68254B9B696E
:10235C00244A43F004039361224B9B6903F004036A
:10236C00BB60BB6838233B6103237B6107F110031F
:10237C0019461D4801F026FE1C4B1D4A1A601B4BCA
:10238C0000225A60194B00229A60184B8022DA60A6
:10239C00164B4FF400721A61144B4FF400625A61E1
:1023AC00124B20229A61114B0022DA610F4801F086
:1023BC006BF80346002B01D0FFF75AFF7B680B4AE2
:1023CC001A620A4A7B68536200220021122001F033
:1023DC0024F8122001F03DF800BF2037BD4680BD27
:1023EC00002401400010024000080140B40200200B
:1023FC000800024080B58AB000AF786007F1140382
:10240C0000221A605A609A60DA607B681B68B3F12C
:10241C00804F3FD12E4BDB692D4A43F00103D36132
:10242C002B4BDB6903F001033B613B69284B9B6938
:10243C00274A43F004039361254B9B6903F0040383
:10244C00FB60FB684FF400437B610023BB610023FE
:10245C00FB6107F1140319461E4801F0B3FD1E4B36
:10246C005B687B627B6A23F440737B627B6A43F01C
:10247C00E0637B627B6A43F480737B62164A7B6AFF
:10248C005360002200211C2000F0C7FF1C2000F02C
:10249C00E0FF18E07B681B68104A934213D10C4B89
:1024AC00DB690B4A43F00403D361094BDB6903F08E
:1024BC000403BB60BB68002201211E2000F0ADFFAD
:1024CC001E2000F0C6FF00BF2837BD4680BD00BFF0
:1024DC0000100240000801400000014000080040CC
:1024EC0080B588B000AF786007F1100300221A6045
:1024FC005A609A60DA607B681B68474A934240F0E6
:10250C008680464B9B69454A43F480439361434B19
:10251C009B6903F48043FB60FB68404B9B693F4A1B
:10252C0043F0040393613D4B9B6903F00403BB60D0
:10253C00BB684FF400733B6102237B610323FB6197
:10254C0007F110031946364801F03CFD4FF4806347
:10255C003B6100237B610023BB6107F1100319462B
:10256C002F4801F02FFD2F4B2F4A1A602D4B0022C4
:10257C005A602C4B00229A602A4B8022DA60294B3D
:10258C0000221A61274B00225A61264B00229A61C5
:10259C00244B0022DA61234800F076FF0346002B1F
:1025AC0001D0FFF765FE7B681E4A9A631D4A7B6863
:1025BC0053621E4B1E4A1A601C4B10225A601B4B56
:1025CC0000229A60194B8022DA60184B00221A61A3
:1025DC00164B00225A61154B00229A61134B0022B4
:1025EC00DA61124800F050FF0346002B01D0FFF7D0
:1025FC003FFE7B680D4A5A630C4A7B68536200228B
:10260C000021252000F009FF252000F022FF00BF4B
:10261C002037BD4680BD00BF00380140001002408D
:10262C0000080140D8030020580002401C04002080
:10263C004400024080B400AF00BFBD4680BC704770
:10264C0080B400AFFEE780B400AFFEE780B400AF0B
:10265C00FEE780B400AFFEE780B400AF00BFBD461C
:10266C0080BC704780B400AF00BFBD4680BC7047D3
:10267C0080B400AF00BFBD4680BC704780B500AFD2
:10268C0000F038F900BF80BD80B500AF01F0B4FE9A
:10269C0000BF80BD80B500AF01F004FA00BF80BD63
:1026AC0080B400AF00BFBD4680BC704780B500AFA2
:1026BC00024801F053F800BF80BD00BFB4020020F7
:1026CC0080B500AF024801F049F800BF80BD00BFE3
:1026DC001C04002080B500AF024801F03FF800BF99
:1026EC0080BD00BFD803002080B500AF024800F0C9
:1026FC00D3FA00BF80BD00BF8402002080B500AFBC
:10270C004FF4007001F014FE00BF80BD80B500AF27
:10271C00024802F0F1FE00BF80BD00BF04030020A0
:10272C0080B500AF024802F0E7FE00BF80BD00BFDD
:10273C004C03002080B500AF024803F0F7FE00BF49
:10274C0080BD00BF9403002080B586B000AF7860D8
:10275C00144A154BD31A7B617B693B61134B1B6885
:10276C00002B02D1114B124A1A60104B1A687B686D
:10277C0013443A699A4207D204F0DEFB03460C225A
:10278C001A604FF0FF3309E0084B1B68FB60074BE6
:10279C001A687B681344054A1360FB68184618379F
:1027AC00BD4680BD005000200004000060040020E5
:1027BC009804002080B400AF154B1B68144A43F0FA
:1027CC0001031360124B5A681149124B13404B60B2
:1027DC000F4B1B680E4A23F0847323F48033136071
:1027EC000B4B1B680A4A23F480231360084B5B686D
:1027FC00074A23F4FE035360054B4FF41F029A6003
:10280C00054B4FF000629A6000BFBD4680BC70471C
:10281C00001002400000FFF800ED00E00C480D49EC
:10282C000D4A002302E0D458C4500433C4188C421F
:10283C00F9D30A4A0A4C002301E013600432A24285
:10284C00FBD3FFF7B7FF04F07DFBFFF769F9704787
:10285C00000000209C00002090790008A0000020BF
:10286C0098040020FEE7000080B500AF084B1B6801
:10287C00074A43F010031360032000F0C3FD02204D
:10288C0000F008F8FFF7FAFC0023184680BD00BFE3
:10289C000020024080B582B000AF7860124B1A68FD
:1028AC00124B1B7819464FF47A73B3FBF1F3B2FB5E
:1028BC00F3F3184600F0DBFD0346002B01D0012397
:1028CC000EE07B680F2B0AD8002279684FF0FF309E
:1028DC0000F0A3FD064A7B681360002300E001238F
:1028EC0018460837BD4680BD2C000020340000205F
:1028FC003000002080B400AF054B1B781A46054B06
:10290C001B681344034A136000BFBD4680BC70476C
:10291C00340000206404002080B400AF024B1B681C
:10292C001846BD4680BC70476404002080B586B054
:10293C0000AF78600023FB7500233B610023BB6074
:10294C000023FB607B68002B01D10123BEE07B6878
:10295C009B68002B7B689B6A002B09D17B6800224B
:10296C00DA627B68002283F824207868FFF7D2FCB7
:10297C00786800F0CBFB0346FB757B689B6A03F021
:10298C001003002B40F09980FB7D002B40F09580CC
:10299C007B689B6A23F4885323F0020343F0020202
:1029AC007B689A627B685A687B68DB691A437B6830
:1029BC001B7B5B001343BA681343BB607B689B684B
:1029CC00B3F5807F03D07B689B68012B02D14FF459
:1029DC00807300E000233A6913433B617B681B7DE5
:1029EC00012B19D17B681B7B002B09D17B689B6960
:1029FC00013B5A033B69134343F400633B610BE017
:102A0C007B689B6A43F020027B689A627B68DB6A76
:102A1C0043F001027B68DA627B681B685B6823F415
:102A2C0069417B681B683A690A435A607B681B687A
:102A3C009A68284B13407A681268B9680B43936004
:102A4C007B689B68B3F5807F03D07B689B68012B08
:102A5C0004D17B681B69013B1B05FB607B681B6811
:102A6C00DB6A23F470017B681B68FA680A43DA623C
:102A7C007B681B689A68184B1340BA689A420BD152
:102A8C007B680022DA627B689B6A23F0030343F0C5
:102A9C0001027B689A6218E07B689B6A23F0120340
:102AAC0043F010027B689A627B68DB6A43F0010298
:102ABC007B68DA620123FB7507E07B689B6A43F055
:102ACC0010027B689A620123FB75FB7D1846183750
:102ADC00BD4680BDFDF7E1FFFE0E1FFF80B586B041
:102AEC0000AFF860B9607A600023FB75FB681B6867
:102AFC00644A934204D0FB681B68634A934206D134
:102B0C00604B5B6803F47023002B40F0B380FB68D0
:102B1C0093F82430012B01D10223AEE0FB68012293
:102B2C0083F82420F86800F097FA0346FB75FB7DC8
:102B3C00002B40F09A80FB689B6A23F4706323F0AF
:102B4C00010343F48072FB689A62FB681B684E4A6F
:102B5C00934205D14B4B5B6803F47023002B15D1CA
:102B6C00FB689B6A23F48012FB689A62FB681B6803
:102B7C005B6803F48063002B26D0FB689B6A23F40C
:102B8C00405343F48052FB689A621DE0FB689B6AD9
:102B9C0043F48012FB689A62FB681B68394A9342C3
:102BAC0004D0FB681B68384A93420DD1354B5B68E7
:102BBC0003F48063002B07D0FB689B6A23F440531B
:102BCC0043F48052FB689A62FB689B6A03F480535F
:102BDC00002B06D0FB68DB6A23F00602FB68DA6286
:102BEC0002E0FB680022DA62FB68002283F82420F2
:102BFC00FB681B6A254A9A62FB681B6A244ADA62E4
:102C0C00FB681B6A234A1A63FB681B686FF002029D
:102C1C001A60FB681B689A68FB681B6842F4807238
:102C2C009A60FB68186AFB681B684C331946BA68D3
:102C3C007B6800F083FCFB681B689B6803F46023D3
:102C4C00B3F5602F08D1FB681B689A68FB681B689A
:102C5C0042F4A0029A600FE0FB681B689A68FB685C
:102C6C001B6842F480129A6006E0FB68002283F82D
:102C7C00242001E00123FB75FB7D18461837BD4667
:102C8C0080BD00BF00240140002801409B3100089A
:102C9C00173200083332000880B582B000AF78607C
:102CAC007B681B685B6803F02003202B40D17B689A
:102CBC001B681B6803F00203022B39D17B689B6AEB
:102CCC0003F01003002B05D17B689B6A43F4007260
:102CDC007B689A627B681B689B6803F46023B3F57E
:102CEC00602F1DD17B681B7B002B19D17B681B6867
:102CFC005A687B681B6822F020025A607B689B6ACA
:102D0C0023F480727B689A627B689B6A03F480531D
:102D1C00002B05D17B689B6A43F001027B689A62A9
:102D2C00786800F07CF87B681B686FF012021A6000
:102D3C007B681B685B6803F08003802B4FD17B683A
:102D4C001B681B6803F00403042B48D17B689B6A47
:102D5C0003F01003002B05D17B689B6A43F40052EF
:102D6C007B689A627B681B689B6803F4E043B3F54D
:102D7C00E04F12D07B681B685B6803F48063002B08
:102D8C0025D17B681B689B6803F46023B3F5602F27
:102D9C001DD17B681B7B002B19D17B681B685A6883
:102DAC007B681B6822F080025A607B689B6A23F464
:102DBC0080527B689A627B689B6A03F48073002B59
:102DCC0005D17B689B6A43F001027B689A62786844
:102DDC0000F043FA7B681B686FF00C021A607B688A
:102DEC001B685B6803F04003402B14D17B681B68A5
:102DFC001B6803F00103012B0DD17B689B6A43F424
:102E0C0080327B689A62786800F01BF87B681B68DC
:102E1C006FF001021A6000BF0837BD4680BD80B458
:102E2C0083B000AF786000BF0C37BD4680BC7047E4
:102E3C0080B483B000AF786000BF0C37BD4680BC57
:102E4C00704780B483B000AF786000BF0C37BD46CC
:102E5C0080BC704780B483B000AF786000BF0C3783
:102E6C00BD4680BC7047000080B485B000AF786070
:102E7C0039600023FB730023BB607B6893F824301C
:102E8C00012B01D10223DCE07B68012283F8242092
:102E9C003B685B68062B1CD87B681B68596B3B68CE
:102EAC005A6813469B001344053B1F2202FA03F396
:102EBC00DB4319403B6818683B685A6813469B0013
:102ECC001344053B00FA03F27B681B680A435A6300
:102EDC003CE03B685B680C2B1CD87B681B68196B4F
:102EEC003B685A6813469B001344233B1F2202FA8B
:102EFC0003F3DB4319403B6818683B685A68134678
:102F0C009B001344233B00FA03F27B681B680A43C3
:102F1C001A631BE07B681B68D96A3B685A681346C6
:102F2C009B001344413B1F2202FA03F3DB4319407D
:102F3C003B6818683B685A6813469B001344413B36
:102F4C0000FA03F27B681B680A43DA623B681B6871
:102F5C00092B1CD97B681B68D9683B681A68134617
:102F6C005B0013441E3B072202FA03F3DB431940B8
:102F7C003B6898683B681A6813465B0013441E3B19
:102F8C0000FA03F27B681B680A43DA6019E07B687D
:102F9C001B6819693B681A6813465B0013440722C7
:102FAC0002FA03F3DB4319403B6898683B681A68E4
:102FBC0013465B00134400FA03F27B681B680A4358
:102FCC001A613B681B68102B03D03B681B68112BE4
:102FDC0032D17B681B681D4A934225D17B681B68E4
:102FEC009B6803F40003002B26D17B681B689A684E
:102FFC007B681B6842F400029A603B681B68102BCC
:10300C001AD1134B1B68134AA2FB03239A0C1346C9
:10301C009B0013445B00BB6002E0BB68013BBB60E0
:10302C00BB68002BF9D107E07B689B6A43F0200258
:10303C007B689A620123FB737B68002283F824204F
:10304C00FB7B18461437BD4680BC704700240140FA
:10305C002C00002083DE1B4380B584B000AF786069
:10306C000023FB600023BB607B681B689B6803F03C
:10307C000103012B40D07B681B689A687B681B6836
:10308C0042F001029A601F4B1B681F4AA2FB0323EC
:10309C009B0CBB6002E0BB68013BBB60BB68002BB8
:1030AC00F9D1FFF739FCF8601FE0FFF735FC024659
:1030BC00FB68D31A022B18D97B681B689B6803F03A
:1030CC000103012B11D07B689B6A43F010027B68D3
:1030DC009A627B68DB6A43F001027B68DA627B6888
:1030EC00002283F82420012307E07B681B689B687F
:1030FC0003F00103012BD8D1002318461037BD462D
:10310C0080BD00BF2C00002083DE1B4380B584B043
:10311C0000AF78600023FB607B681B689B6803F042
:10312C000103012B2ED17B681B689A687B681B6896
:10313C0022F001029A60FFF7EFFBF8601BE0FFF74B
:10314C00EBFB0246FB68D31A022B14D97B681B6875
:10315C009B6803F00103012B0DD17B689B6A43F044
:10316C0010027B689A627B68DB6A43F001027B6821
:10317C00DA62012307E07B681B689B6803F001039C
:10318C00012BDCD0002318461037BD4680BD80B51E
:10319C0084B000AF78607B685B6AFB60FB689B6AFD
:1031AC0003F05003002B27D1FB689B6A43F4007299
:1031BC00FB689A62FB681B689B6803F46023B3F599
:1031CC00602F15D1FB681B7B002B11D1FB689B6A10
:1031DC0023F48072FB689A62FB689B6A03F4805349
:1031EC00002B05D1FB689B6A43F00102FB689A62D5
:1031FC00F868FFF714FE04E0FB681B6A1B6B786829
:10320C00984700BF1037BD4680BD80B584B000AF75
:10321C0078607B685B6AFB60F868FFF709FE00BFAB
:10322C001037BD4680BD80B584B000AF78607B6838
:10323C005B6AFB60FB689B6A43F04002FB689A6226
:10324C00FB68DB6A43F00402FB68DA62F868FFF79C
:10325C0001FE00BF1037BD4680BD80B483B000AF07
:10326C00786000BF0C37BD4680BC704780B485B019
:10327C0000AF78607B6803F00703FB600C4BDB68E6
:10328C00BB60BA684FF6FF031340BB60FB681A02C1
:10329C00BB68134343F0BF6343F40033BB60044A81
:1032AC00BB68D36000BF1437BD4680BC704700BFFD
:1032BC0000ED00E080B400AF044BDB681B0A03F0A8
:1032CC0007031846BD4680BC704700BF00ED00E008
:1032DC0080B483B000AF0346FB7197F90730002B25
:1032EC000BDBFB7903F01F02064997F907305B09EA
:1032FC00012000FA02F241F8232000BF0C37BD4632
:10330C0080BC704700E100E080B483B000AF03469E
:10331C003960FB7197F90730002B0ADB3B68DAB296
:10332C000C4997F907301201D2B20B4483F80023F1
:10333C000AE03B68DAB20849FB7903F00F03043B5F
:10334C001201D2B20B441A7600BF0C37BD4680BCBA
:10335C00704700BF00E100E000ED00E080B489B0F0
:10336C0000AFF860B9607A60FB6803F00703FB619B
:10337C00FB69C3F10703042B28BF0423BB61FB6962
:10338C000433062B02D9FB69033B00E000237B616D
:10339C004FF0FF32BB6902FA03F3DA43BB681A4001
:1033AC007B699A404FF0FF317B6901FA03F3D943F3
:1033BC007B680B40134318462437BD4680BC7047CE
:1033CC0080B582B000AF78607B68013BB3F1807F41
:1033DC0001D301230FE00A4A7B68013B53600F21A4
:1033EC004FF0FF30FFF790FF054B00229A60044B23
:1033FC0007221A60002318460837BD4680BD00BF5F
:10340C0010E000E080B582B000AF78607868FFF71C
:10341C002DFF00BF0837BD4680BD80B586B000AF1C
:10342C000346B9607A60FB7300237B61FFF742FFB0
:10343C0078617A68B9687869FFF790FF024697F966
:10344C000F3011461846FFF75FFF00BF1837BD4617
:10345C0080BD80B582B000AF0346FB7197F9073091
:10346C001846FFF735FF00BF0837BD4680BD80B555
:10347C0082B000AF78607868FFF7A2FF0346184669
:10348C000837BD4680BD000080B485B000AF7860C1
:10349C000023FB607B68002B01D1012343E07B6898
:1034AC001B681A46224B1344224AA2FB03231B0916
:1034BC009A007B681A647B681F4ADA637B68022275
:1034CC0083F821207B681B681B68FB60FB6823F476
:1034DC007F5323F03003FB607B685A687B689B68E2
:1034EC001A437B68DB681A437B681B691A437B6849
:1034FC005B691A437B689B691A437B68DB691343DE
:10350C00FA681343FB607B681B68FA681A607B6877
:10351C0000229A637B68012283F821207B680022B9
:10352C0083F82020002318461437BD4680BC704712
:10353C00F8FFFDBFCDCCCCCC0000024080B586B0EE
:10354C0000AFF860B9607A603B600023FB75FB68E4
:10355C0093F82030012B01D102234AE0FB680122B1
:10356C0083F82020FB6893F82130012B3AD1FB68BB
:10357C00022283F82120FB6800229A63FB681B68F7
:10358C001A68FB681B6822F001021A603B687A68B3
:10359C00B968F86800F0E8F9FB68DB6A002B08D022
:1035AC00FB681B681A68FB681B6842F00E021A6005
:1035BC000FE0FB681B681A68FB681B6822F00402AA
:1035CC001A60FB681B681A68FB681B6842F00A02E9
:1035DC001A60FB681B681A68FB681B6842F00102E2
:1035EC001A6005E0FB68002283F820200223FB759B
:1035FC00FB7D18461837BD4680BD80B485B000AF42
:10360C0078600023FB737B6893F82130022B08D081
:10361C007B6804229A637B68002283F820200123B4
:10362C0020E07B681B681A687B681B6822F00E021E
:10363C001A607B681B681A687B681B6822F00102A1
:10364C001A607B681A6C7B68DB6B012101FA02F251
:10365C005A607B68012283F821207B68002283F862
:10366C002020FB7B18461437BD4680BC70470000F9
:10367C0080B584B000AF78600023FB737B6893F84F
:10368C002130022B05D07B6804229A630123FB7343
:10369C0051E07B681B681A687B681B6822F00E027D
:1036AC001A607B681B681A687B681B6822F0010231
:1036BC001A607B681B68224A934229D07B681B687E
:1036CC00204A934222D07B681B681F4A93421AD02F
:1036DC007B681B681D4A934212D07B681B681C4A8E
:1036EC0093420AD07B681B681A4A934202D14FF46A
:1036FC0080130EE04FF080730BE04FF4803308E042
:10370C004FF4805305E04FF4807302E0102300E087
:10371C000123114A53607B68012283F821207B68C6
:10372C00002283F820207B685B6B002B03D07B6826
:10373C005B6B78689847FB7B18461037BD4680BD9D
:10374C00080002401C0002403000024044000240CD
:10375C00580002406C0002400000024080B584B06A
:10376C0000AF78607B68DB6B1B68FB607B681B6859
:10377C001B68BB607B681B6C04229A40FB6813407F
:10378C00002B4FD0BB6803F00403002B4AD07B689E
:10379C001B681B6803F02003002B07D17B681B6898
:1037AC001A687B681B6822F004021A607B681B682D
:1037BC00664A934229D07B681B68654A934222D0A3
:1037CC007B681B68634A93421AD07B681B68624A09
:1037DC00934212D07B681B68604A93420AD07B6884
:1037EC001B685F4A934202D14FF480030EE04FF006
:1037FC0080630BE04FF4802308E04FF4804305E036
:10380C004FF4806302E0402300E00423554A5360E8
:10381C007B68DB6A002B00F094807B68DB6A78683D
:10382C0098478EE07B681B6C02229A40FB68134021
:10383C00002B56D0BB6803F00203002B51D07B68E1
:10384C001B681B6803F02003002B0BD17B681B68E3
:10385C001A687B681B6822F00A021A607B680122D6
:10386C0083F821207B681B68384A934229D07B68F7
:10387C001B68374A934222D07B681B68354A9342B7
:10388C001AD07B681B68344A934212D07B681B6841
:10389C00324A93420AD07B681B68314A934202D168
:1038AC004FF400130EE04FF000730BE04FF40033B5
:1038BC0008E04FF4005305E04FF4007302E02023BE
:1038CC0000E00223274A53607B68002283F8202003
:1038DC007B689B6A002B34D07B689B6A786898471E
:1038EC002FE07B681B6C08229A40FB681340002B6E
:1038FC0028D0BB6803F00803002B23D07B681B681F
:10390C001A687B681B6822F00E021A607B681A6CBE
:10391C007B68DB6B012101FA02F25A607B680122A1
:10392C009A637B68012283F821207B68002283F84C
:10393C0020207B681B6B002B04D07B681B6B78688A
:10394C00984700BF00BF1037BD4680BD080002403D
:10395C001C0002403000024044000240580002406B
:10396C006C0002400000024080B485B000AFF860EB
:10397C00B9607A603B60FB681A6CFB68DB6B0121F9
:10398C0001FA02F25A60FB681B683A685A60FB68DD
:10399C005B68102B08D1FB681B687A689A60FB681F
:1039AC001B68BA68DA6007E0FB681B68BA689A6043
:1039BC00FB681B687A68DA6000BF1437BD4680BCB0
:1039CC0070470000F0B587B000AFF860B960C7E988
:1039DC0000230123FB750023BB7500237B752F4B44
:1039EC001B7E012B01D1022354E02C4B01221A76B1
:1039FC004CF2503000F0A8F90346FB75FB7D002B10
:103A0C0044D1FB68012B02D101237B7507E0FB68D5
:103A1C00022B02D102237B7501E004237B7500236A
:103A2C00BB752DE0BB7D5A00BB6802EB030CBB7D64
:103A3C001901D7E90023C1F12006A1F1200022FAD7
:103A4C0001F403FA06F6344323FA00F0044323FA94
:103A5C0001F5A3B21946604600F05AF94CF2503009
:103A6C0000F072F90346FB750D4B1B690C4A23F0F1
:103A7C0001031361FB7D002B07D1BB7D0133BB75AB
:103A8C00BA7D7B7D9A42CDD300E000BF034B002270
:103A9C001A76FB7D18461C37BD46F0BD6804002025
:103AAC000020024080B582B000AF00237B606D4BDC
:103ABC00DB6803F01003002B05D16A4BDB6803F0C5
:103ACC000403002B0ED0684B9B687B60664B4FF059
:103ADC00FF329A6000F07EF9786800F0D0F8624B03
:103AEC0000221A705F4BDB6803F02003002B00F000
:103AFC00A0805C4B2022DA605B4B1B78DBB2002B86
:103B0C0000F09780584B1B78DBB2012B2DD1564B14
:103B1C005B68013B544A5360534B5B68002B17D0D6
:103B2C00514B9B687B60786800F0A0F84E4B9B680B
:103B3C0003F580637B604C4A7B689360494B1B693F
:103B4C00484A23F002031361786800F01BFA70E016
:103B5C004FF0FF337B60444A7B689360424B0022FA
:103B6C001A70786800F082F863E03F4B1B78DBB288
:103B7C00022B0CD13B4B1B693A4A23F00403136113
:103B8C00002000F073F8384B00221A7051E0364BCD
:103B9C005B68013B344A5360334B5B68002B24D089
:103BAC00314B9B680233304A93602F4B9B687B6090
:103BBC002D4BD3E904014FF000024FF00003020C2F
:103BCC0042EA01420B0C2849C1E90423254B1B692D
:103BDC00244A23F001031361234BD3E9042393B24A
:103BEC001946786800F094F823E01F4B1B78DBB281
:103BFC00032B05D11C4B9B68184600F037F811E0DD
:103C0C00194B1B78DBB2042B06D1174B9B68023B7C
:103C1C00184600F02BF805E0134B9B68063B184642
:103C2C0000F024F8104B4FF0FF329A600E4B00223C
:103C3C001A700D4B1B78DBB2002B0ED1094B1B6994
:103C4C00084A23F007031361064B1B69054A23F44A
:103C5C00A0531361044B00221A7600BF0837BD46EF
:103C6C0080BD00BF002002406804002080B483B0F7
:103C7C0000AF786000BF0C37BD4680BC704780B485
:103C8C0083B000AF786000BF0C37BD4680BC704776
:103C9C0080B483B000AF0023FB710D4B1B6903F0A4
:103CAC008003002B0DD00A4B0A4A5A60084B0A4A73
:103CBC005A60074B1B6903F08003002B01D00123D2
:103CCC00FB71FB7918460C37BD4680BC704700BFB2
:103CDC000020024023016745AB89EFCD80B400AFD3
:103CEC00054B1B69044A43F08003136100231846FB
:103CFC00BD4680BC704700BF0020024080B400AFBE
:103D0C00024BDB691846BD4680BC70476804002036
:103D1C0080B483B000AF78600B467B80084B0022E8
:103D2C00DA61084B1B69074A43F0010313617B6896
:103D3C007A881A8000BF0C37BD4680BC704700BF24
:103D4C00680400200020024080B584B000AF786089
:103D5C00FEF7E2FDF86010E07B68B3F1FF3F0CD09A
:103D6C007B68002B07D0FEF7D7FD0246FB68D31A01
:103D7C007A689A4201D2032325E0154BDB6803F0E5
:103D8C000103002BE8D1124BDB6803F02003002B5E
:103D9C0002D00F4B2022DA600D4BDB6803F01003CE
:103DAC00002B0BD10A4BDB6903F00103002B05D16F
:103DBC00074BDB6803F00403002B03D000F00AF878
:103DCC00012300E0002318461037BD4680BD00BF1C
:103DDC000020024080B483B000AF00237B60234BF3
:103DEC00DB6803F01003002B09D0214BDB6943F097
:103DFC0002031F4AD3617B6843F010037B601B4BAB
:103E0C00DB6803F00403002B09D0194BDB6943F08A
:103E1C000103174AD3617B6843F004037B60134BA7
:103E2C00DB6903F00103002B0BD0114BDB6943F072
:103E3C0004030F4AD3610D4BDB690C4A23F00103D9
:103E4C00D3617B6840F20112934206D1074BDB69C8
:103E5C00064A23F00103D36102E0044A7B68D36075
:103E6C0000BF0C37BD4680BC704700BF002002402D
:103E7C006804002080B584B000AF786039600123FD
:103E8C00FB730023BB602F4B1B7E012B01D1022344
:103E9C0053E02C4B01221A767B681B68022B16D13F
:103EAC004CF25030FFF750FF0346002B41D101205C
:103EBC0000F04CF84CF25030FFF746FF0346FB7312
:103ECC00214B1B69204A23F00403136131E04CF2AF
:103EDC005030FFF739FF0346002B2AD13B684FF0D7
:103EEC00FF321A607B689B68BB6019E0B86800F011
:103EFC0049F84CF25030FFF727FF0346FB73124B87
:103F0C001B69114A23F002031361FB7B002B03D0C6
:103F1C003B68BA681A600CE0BB6803F58063BB6051
:103F2C007B68DB689A027B689B681344BA689A4288
:103F3C00DCD3044B00221A76FB7B18461037BD46A7
:103F4C0080BD00BF680400200020024080B483B014
:103F5C0000AF7860094B0022DA61094B1B69084AF3
:103F6C0043F004031361064B1B69054A43F04003FD
:103F7C00136100BF0C37BD4680BC7047680400203D
:103F8C000020024080B483B000AF78600B4B00225D
:103F9C00DA610B4B1B690A4A43F002031361084AAE
:103FAC007B685361064B1B69054A43F04003136160
:103FBC0000BF0C37BD4680BC704700BF68040020B2
:103FCC000020024080B48BB000AF786039600023D1
:103FDC007B6200233B6269E101227B6A02FA03F3F4
:103FEC00FB613B681B68FA691340BB61BA69FB69EA
:103FFC009A4240F058813B685B689A4A93425ED083
:10400C00984A934275D8984A934258D0964A93420C
:10401C006FD8964A934252D0944A934269D8944AA4
:10402C0093424CD0924A934263D8924A934246D0E0
:10403C00904A93425DD8122B2AD8122B59D801A240
:10404C0052F823F0CB400008A5400008B740000808
:10405C00F9400008FF400008FF400008FF4000083E
:10406C00FF400008FF400008FF400008FF40000828
:10407C00FF400008FF400008FF400008FF40000818
:10408C00FF400008FF400008AD400008C140000898
:10409C00794A934213D02CE03B68DB683B6229E001
:1040AC003B68DB6804333B6224E03B68DB68083325
:1040BC003B621FE03B68DB680C333B621AE03B68F9
:1040CC009B68002B02D104233B6213E03B689B6886
:1040DC00012B05D108233B627B68FA691A6109E060
:1040EC0008233B627B68FA695A6103E000233B6258
:1040FC0000E000BFBB69FF2B01D87B6801E07B6847
:10410C0004337B61BB69FF2B02D87B6A9B0002E006
:10411C007B6A083B9B003B617B691A680F213B69FA
:10412C0001FA03F3DB431A40396A3B6901FA03F3E2
:10413C001A437B691A603B685B6803F08053002B61
:10414C0000F0B1804D4B9B694C4A43F001039361E5
:10415C004A4B9B6903F00103BB60BB68484A7B6A0E
:10416C009B08023352F82330FB607B6A03F0030395
:10417C009B000F2202FA03F3DB43FA681340FB6047
:10418C007B68404A934213D07B683F4A93420DD0E0
:10419C007B683E4A934207D07B683D4A934201D1EB
:1041AC00032306E0042304E0022302E0012300E0E1
:1041BC0000237A6A02F0030292009340FA681343D8
:1041CC00FB602F497B6A9B080233FA6841F8232075
:1041DC003B685B6803F48033002B06D02D4B1A68C8
:1041EC002C49BB6913430B6006E02A4B1A68BB6968
:1041FC00DB43284913400B603B685B6803F40033D6
:10420C00002B06D0234B5A682249BB6913434B60E1
:10421C0006E0204B5A68BB69DB431E4913404B60D8
:10422C003B685B6803F48013002B06D0194B9A682B
:10423C001849BB6913438B6006E0164B9A68BB693F
:10424C00DB43144913408B603B685B6803F4001339
:10425C00002B21D00F4BDA680E49BB691343CB609E
:10426C0021E000BF000032100000311000002210CD
:10427C00000021100000121000001110001002406C
:10428C000000014000080140000C014000100140FA
:10429C0000140140000401400B4BDA68BB69DB439E
:1042AC0009491340CB607B6A01337B623B681A6817
:1042BC007B6A22FA03F3002B7FF48EAE00BF00BFA3
:1042CC002C37BD4680BC70470004014080B483B0DD
:1042DC0000AF78600B467B8013467B707B78002B9D
:1042EC0003D07A887B681A6103E07B881A047B68A8
:1042FC001A6100BF0C37BD4680BC704780B485B0D6
:10430C0000AF78600B467B807B68DB68FB607A884B
:10431C00FB6813401A04FB68D9437B880B401A4393
:10432C007B681A6100BF1437BD4680BC7047000023
:10433C0080B582B000AF0346FB80084B5A69FB88FE
:10434C001340002B06D0054AFB885361FB881846A6
:10435C0000F006F800BF0837BD4680BD00040140E0
:10436C0080B483B000AF0346FB8000BF0C37BD4662
:10437C0080BC704780B584B000AF78607B68002B40
:10438C0001D1012334E07B681B684CF6CC421A60E7
:10439C007B681B6845F255521A607B681B687A680B
:1043AC0052685A607B681B687A6892689A60FEF75C
:1043BC00B3FAF8600FE0FEF7AFFA0246FB68D31AC7
:1043CC00272B08D97B681B68DB6803F00303002BE1
:1043DC0001D003230CE07B681B68DB6803F003034C
:1043EC00002BE8D17B681B684AF6AA221A600023CE
:1043FC0018461037BD4680BD80B500AF064B5B69D3
:10440C0003F48033002B05D000F008F8024B4FF476
:10441C0080325A6100BF80BD0004014080B400AFFF
:10442C0000BFBD4680BC704780B586B000AF7860D9
:10443C007B68002B01D1012372E27B681B6803F0BF
:10444C000103002B00F08780924B5B6803F00C0398
:10445C00042B0CD08F4B5B6803F00C03082B12D190
:10446C008C4B5B6803F48033B3F5803F0BD1894BE5
:10447C001B6803F40033002B6CD07B685B68002B4B
:10448C0068D101234CE27B685B68B3F5803F06D1B1
:10449C00804B1B687F4A43F4803313602EE07B68AB
:1044AC005B68002B0CD17B4B1B687A4A23F480335E
:1044BC001360784B1B68774A23F4802313601DE04C
:1044CC007B685B68B3F5A02F0CD1724B1B68714AEB
:1044DC0043F4802313606F4B1B686E4A43F48033A4
:1044EC0013600BE06B4B1B686A4A23F48033136038
:1044FC00684B1B68674A23F4802313607B685B68F6
:10450C00002B13D0FEF708FA386108E0FEF704FA26
:10451C0002463B69D31A642B01D9032300E25D4B9D
:10452C001B6803F40033002BF0D014E0FEF7F4F911
:10453C00386108E0FEF7F0F902463B69D31A642BA8
:10454C0001D90323ECE1534B1B6803F40033002B1C
:10455C00F0D100E000BF7B681B6803F00203002B66
:10456C0063D04C4B5B6803F00C03002B0BD0494B16
:10457C005B6803F00C03082B1CD1464B5B6803F4FF
:10458C008033002B16D1434B1B6803F00203002B26
:10459C0005D07B681B69012B01D00123C0E13D4B89
:1045AC001B6823F0F8027B685B69DB003949134315
:1045BC000B603AE07B681B69002B20D0364B012244
:1045CC001A60FEF7A9F9386108E0FEF7A5F9024672
:1045DC003B69D31A022B01D90323A1E12D4B1B6894
:1045EC0003F00203002BF0D02A4B1B6823F0F802D7
:1045FC007B685B69DB00274913430B6015E0264B96
:10460C0000221A60FEF788F9386108E0FEF784F999
:10461C0002463B69D31A022B01D9032380E11D4BBF
:10462C001B6803F00203002BF0D17B681B6803F0BE
:10463C000803002B3AD07B689B69002B19D0174BD1
:10464C0001221A60FEF768F9386108E0FEF764F998
:10465C0002463B69D31A022B01D9032360E10D4BAF
:10466C005B6A03F00203002BF0D0012000F0D8FAB3
:10467C001CE00A4B00221A60FEF74EF938610FE07D
:10468C00FEF74AF902463B69D31A022B08D90323D9
:10469C0046E100BF0010024000004242800442424A
:1046AC00924B5B6A03F00203002BE9D17B681B6819
:1046BC0003F00403002B00F0A6800023FB758B4B4A
:1046CC00DB6903F08053002B0DD1884BDB69874AE3
:1046DC0043F08053D361854BDB6903F08053BB609F
:1046EC00BB680123FB75824B1B6803F48073002BA2
:1046FC0018D17F4B1B687E4A43F480731360FEF71E
:10470C000BF9386108E0FEF707F902463B69D31A4A
:10471C00642B01D9032303E1754B1B6803F48073ED
:10472C00002BF0D07B68DB68012B06D16F4B1B6A2A
:10473C006E4A43F0010313622DE07B68DB68002BAB
:10474C000CD16A4B1B6A694A23F001031362674B55
:10475C001B6A664A23F0040313621CE07B68DB6867
:10476C00052B0CD1614B1B6A604A43F004031362A6
:10477C005E4B1B6A5D4A43F0010313620BE05B4B1B
:10478C001B6A5A4A23F001031362584B1B6A574A9F
:10479C0023F0040313627B68DB68002B15D0FEF753
:1047AC00BBF838610AE0FEF7B7F802463B69D31A4A
:1047BC0041F28832934201D90323B1E04B4B1B6A7F
:1047CC0003F00203002BEED014E0FEF7A5F83861DD
:1047DC000AE0FEF7A1F802463B69D31A41F288328F
:1047EC00934201D903239BE0404B1B6A03F0020365
:1047FC00002BEED1FB7D012B05D13C4BDB693B4AF9
:10480C0023F08053D3617B68DB69002B00F0878039
:10481C00364B5B6803F00C03082B61D07B68DB69BB
:10482C00022B46D1334B00221A60FEF775F8386123
:10483C0008E0FEF771F802463B69D31A022B01D946
:10484C0003236DE0294B1B6803F00073002BF0D1A0
:10485C007B681B6AB3F5803F08D1244B5B6823F45B
:10486C0000327B689B68214913434B601F4B5B688C
:10487C0023F474127B68196A7B685B6A0B431B49CF
:10488C0013434B601B4B01221A60FEF745F838614D
:10489C0008E0FEF741F802463B69D31A022B01D916
:1048AC0003233DE0114B1B6803F00073002BF0D089
:1048BC0035E0104B00221A60FEF72EF8386108E044
:1048CC00FEF72AF802463B69D31A022B01D90323BF
:1048DC0026E0064B1B6803F00073002BF0D11EE0A2
:1048EC007B68DB69012B07D1012319E00010024022
:1048FC0000700040600042420B4B5B68FB60FB6841
:10490C0003F480327B681B6A9A4206D1FB6803F47D
:10491C0070127B685B6A9A4201D0012300E000238D
:10492C0018461837BD4680BD0010024080B584B0D3
:10493C0000AF786039607B68002B01D10123D0E097
:10494C006A4B1B6803F007033A689A4210D9674B0D
:10495C001B6823F0070265493B6813430B60634BEC
:10496C001B6803F007033A689A4201D00123B8E0B0
:10497C007B681B6803F00203002B20D07B681B684C
:10498C0003F00403002B05D0594B5B68584A43F4E1
:10499C00E06353607B681B6803F00803002B05D0B1
:1049AC00534B5B68524A43F460535360504B5B6803
:1049BC0023F0F0027B689B684D4913434B607B6886
:1049CC001B6803F00103002B40D07B685B68012B54
:1049DC0007D1474B1B6803F40033002B15D101237F
:1049EC007FE07B685B68022B07D1414B1B6803F0AF
:1049FC000073002B09D1012373E03D4B1B6803F0BE
:104A0C000203002B01D101236BE0394B5B6823F0CF
:104A1C0003027B685B68364913434B60FDF77CFFF0
:104A2C00F8600AE0FDF778FF0246FB68D31A41F202
:104A3C008832934201D9032353E02D4B5B6803F07A
:104A4C000C027B685B689B009A42EBD1274B1B687E
:104A5C0003F007033A689A4210D2244B1B6823F0E8
:104A6C00070222493B6813430B60204B1B6803F081
:104A7C0007033A689A4201D0012332E07B681B6835
:104A8C0003F00403002B08D0194B5B6823F4E0629D
:104A9C007B68DB68164913434B607B681B6803F02B
:104AAC000803002B09D0124B5B6823F460527B681F
:104ABC001B69DB000E4913434B6000F021F80246E2
:104ACC000B4B5B681B0903F00F030A49CB5C22FA02
:104ADC0003F3094A1360094B1B681846FDF7DAFE0D
:104AEC00002318461037BD4680BD00BF0020024091
:104AFC00001002403C7900082C00002030000020FF
:104B0C0090B48AB000AF294B3C1D0FCB84E80F004A
:104B1C0040F201233B800023FB610023BB61002397
:104B2C007B6200237B6100233B62214B5B68FB6152
:104B3C00FB6903F00C03042B02D0082B03D02BE0F1
:104B4C001C4B3B622BE0FB699B0C03F00F032833DF
:104B5C003B4413F8243C7B61FB6903F48033002B4A
:104B6C0012D0134B5B685B0C03F0010328333B44FE
:104B7C0013F8283CBB617B690E4A03FB02F2BB694C
:104B8C00B2FBF3F37B6204E07B690B4A02FB03F399
:104B9C007B627B6A3B6202E0064B3B6200BF3B6A76
:104BAC0018462837BD4690BC704700BFF8780008FF
:104BBC000010024000127A0000093D0080B400AFE2
:104BCC00024B1B681846BD4680BC70472C00002069
:104BDC0080B500AFFFF7F2FF0246054B5B681B0A7E
:104BEC0003F007030349CB5C22FA03F3184680BD9C
:104BFC00001002404C79000880B500AFFFF7DEFFD3
:104C0C000246054B5B68DB0A03F007030349CB5CE8
:104C1C0022FA03F3184680BD001002404C790008BC
:104C2C0080B485B000AF78600A4B1B680A4AA2FBBF
:104C3C0003235B0A7A6802FB03F3FB6000BFFB688B
:104C4C005A1EFA60002BF9D100BF00BF1437BD46C5
:104C5C0080BC70472C000020D34D621080B586B00C
:104C6C0000AF786000233B610023FB607B681B680E
:104C7C0003F00103002B7DD00023FB754F4BDB6948
:104C8C0003F08053002B0DD14C4BDB694B4A43F0A6
:104C9C008053D361494BDB6903F08053BB60BB6825
:104CAC000123FB75464B1B6803F48073002B18D152
:104CBC00434B1B68424A43F480731360FDF72CFE90
:104CCC00386108E0FDF728FE02463B69D31A642BD5
:104CDC0001D903236DE03A4B1B6803F48073002B5E
:104CEC00F0D0364B1B6A03F44073FB60FB68002B5F
:104CFC002ED07B685B6803F44073FA689A4227D025
:104D0C002E4B1B6A23F44073FB602E4B01221A605E
:104D1C002C4B00221A60294AFB681362FB6803F0D3
:104D2C000103002B14D0FDF7F7FD38610AE0FDF705
:104D3C00F3FD02463B69D31A41F28832934201D902
:104D4C00032336E01D4B1B6A03F00203002BEED04D
:104D5C001A4B1B6A23F440727B685B681749134338
:104D6C000B62FB7D012B05D1144BDB69134A23F03D
:104D7C008053D3617B681B6803F00203002B08D0BF
:104D8C000E4B5B6823F440427B689B680B491343D2
:104D9C004B607B681B6803F01003002B08D0074B9B
:104DAC005B6823F480027B68DB68044913434B6027
:104DBC00002318461837BD4680BD00BF00100240C6
:104DCC00007000404004424280B582B000AF786071
:104DDC007B68002B01D1012341E07B6893F83D30C7
:104DEC00DBB2002B06D17B68002283F83C2078686C
:104DFC00FDF700FB7B68022283F83D207B681A6874
:104E0C007B6804331946104600F084FE7B6801224F
:104E1C0083F846207B68012283F83E207B680122C0
:104E2C0083F83F207B68012283F840207B680122B5
:104E3C0083F841207B68012283F842207B680122A1
:104E4C0083F843207B68012283F844207B6801228D
:104E5C0083F845207B68012283F83D200023184607
:104E6C000837BD4680BD80B582B000AF78607B68E6
:104E7C00002B01D1012341E07B6893F83D30DBB27C
:104E8C00002B06D17B68002283F83C20786800F068
:104E9C0039F87B68022283F83D207B681A687B68AE
:104EAC0004331946104600F035FE7B68012283F866
:104EBC0046207B68012283F83E207B68012283F820
:104ECC003F207B68012283F840207B68012283F815
:104EDC0041207B68012283F842207B68012283F801
:104EEC0043207B68012283F844207B68012283F8ED
:104EFC0045207B68012283F83D20002318460837A3
:104F0C00BD4680BD80B483B000AF786000BF0C3765
:104F1C00BD4680BC7047000080B584B000AF78609F
:104F2C0039603B68002B09D17B6893F83E30DBB2CB
:104F3C00012B14BF01230023DBB222E03B68042BBE
:104F4C0009D17B6893F83F30DBB2012B14BF0123EE
:104F5C000023DBB215E03B68082B09D17B6893F882
:104F6C004030DBB2012B14BF01230023DBB208E07D
:104F7C007B6893F84130DBB2012B14BF0123002373
:104F8C00DBB2002B01D00123A4E03B68002B04D141
:104F9C007B68022283F83E2013E03B68042B04D18B
:104FAC007B68022283F83F200BE03B68082B04D17E
:104FBC007B68022283F8402003E07B68022283F89E
:104FCC0041203B680C2B41D801A252F823F000BFC2
:104FDC001150000859500008595000085950000849
:104FEC002350000859500008595000085950000827
:104FFC003550000859500008595000085950000805
:10500C00475000087B681B68DA687B681B6842F0B5
:10501C000202DA601BE07B681B68DA687B681B683D
:10502C0042F00402DA6012E07B681B68DA687B6885
:10503C001B6842F00802DA6009E07B681B68DA68DA
:10504C007B681B6842F01002DA6000E000BF7B68EE
:10505C001B6801223968184601F0E9F87B681B6867
:10506C001E4A934207D17B681B685A6C7B681B688D
:10507C0042F400425A647B681B68184A93420ED073
:10508C007B681B68B3F1804F09D07B681B68144A9E
:10509C00934204D07B681B68124A934211D17B68FF
:1050AC001B689B6803F00703FB60FB68062B10D0A2
:1050BC007B681B681A687B681B6842F001021A60E7
:1050CC0007E07B681B681A687B681B6842F001026A
:1050DC001A60002318461037BD4680BD002C0140D5
:1050EC00000400400008004080B582B000AF78603A
:1050FC0039603B680C2B41D801A252F823F000BF59
:10510C004151000889510008895100088951000853
:10511C005351000889510008895100088951000831
:10512C00655100088951000889510008895100080F
:10513C00775100087B681B68DA687B681B6822F073
:10514C000202DA601BE07B681B68DA687B681B680C
:10515C0022F00402DA6012E07B681B68DA687B6874
:10516C001B6822F00802DA6009E07B681B68DA68C9
:10517C007B681B6822F01002DA6000E000BF7B68DD
:10518C001B6800223968184601F051F87B681B68CF
:10519C00294A934217D17B681B681A6A41F2111392
:1051AC001340002B0FD17B681B681A6A40F24443F2
:1051BC001340002B07D17B681B685A6C7B681B68FB
:1051CC0022F400425A647B681B681A6A41F211137C
:1051DC001340002B0FD17B681B681A6A40F24443C2
:1051EC001340002B07D17B681B681A687B681B680F
:1051FC0022F001021A603B68002B04D17B6801226B
:10520C0083F83E2013E03B68042B04D17B68012219
:10521C0083F83F200BE03B68082B04D17B6801220C
:10522C0083F8402003E07B68012283F841200023AF
:10523C0018460837BD4680BD002C014080B582B0B1
:10524C0000AF78607B68002B01D1012341E07B68C3
:10525C0093F83D30DBB2002B06D17B68002283F83B
:10526C003C20786800F039F87B68022283F83D20F6
:10527C007B681A687B6804331946104600F04AFCB8
:10528C007B68012283F846207B68012283F83E204C
:10529C007B68012283F83F207B68012283F8402041
:1052AC007B68012283F841207B68012283F842202D
:1052BC007B68012283F843207B68012283F8442019
:1052CC007B68012283F845207B68012283F83D200E
:1052DC00002318460837BD4680BD80B483B000AFAC
:1052EC00786000BF0C37BD4680BC704780B584B079
:1052FC0000AF786039603B68002B04D17B6893F871
:10530C003E30DBB213E03B68042B04D17B6893F88E
:10531C003F30DBB20BE03B68082B04D17B6893F881
:10532C004030DBB203E07B6893F84130DBB2FB73B7
:10533C003B68002B04D17B6893F84230DBB213E05E
:10534C003B68042B04D17B6893F84330DBB20BE051
:10535C003B68082B04D17B6893F84430DBB203E044
:10536C007B6893F84530DBB2BB73FB7B012B02D11E
:10537C00BB7B012B01D00123B3E03B68002B04D194
:10538C007B68022283F83E2013E03B68042B04D197
:10539C007B68022283F83F200BE03B68082B04D18A
:1053AC007B68022283F8402003E07B68022283F8AA
:1053BC0041203B68002B04D17B68022283F84220F9
:1053CC0013E03B68042B04D17B68022283F8432052
:1053DC000BE03B68082B04D17B68022283F8442045
:1053EC0003E07B68022283F845203B680C2B41D8F4
:1053FC0001A252F823F000BF395400088154000870
:10540C0081540008815400084B5400088154000852
:10541C0081540008815400085D5400088154000830
:10542C0081540008815400086F5400087B681B6885
:10543C00DA687B681B6842F00202DA601BE07B686A
:10544C001B68DA687B681B6842F00402DA6012E0C1
:10545C007B681B68DA687B681B6842F00802DA60BC
:10546C0009E07B681B68DA687B681B6842F01002F5
:10547C00DA6000E000BF7B681B68012239681846BF
:10548C0000F0D5FE7B681B68184A93420ED07B68EF
:10549C001B68B3F1804F09D07B681B68144A934298
:1054AC0004D07B681B68134A934211D17B681B683C
:1054BC009B6803F00703BB60BB68062B10D07B68AE
:1054CC001B681A687B681B6842F001021A6007E0CF
:1054DC007B681B681A687B681B6842F001021A60C3
:1054EC00002318461037BD4680BD00BF002C01407C
:1054FC00000400400008004080B582B000AF786026
:10550C007B681B681B6903F00203022B22D17B68AA
:10551C001B68DB6803F00203022B1BD17B681B6842
:10552C006FF002021A617B6801221A777B681B6894
:10553C009B6903F00303002B03D07868FBF71AFA7E
:10554C0005E07868FBF77AFA786800F0D1FA7B68A6
:10555C0000221A777B681B681B6903F00403042B79
:10556C0022D17B681B68DB6803F00403042B1BD17E
:10557C007B681B686FF004021A617B6802221A7741
:10558C007B681B689B6903F44073002B03D078681D
:10559C00FBF7F0F905E07868FBF750FA786800F053
:1055AC00A7FA7B6800221A777B681B681B6903F0DB
:1055BC000803082B22D17B681B68DB6803F0080307
:1055CC00082B1BD17B681B686FF008021A617B6883
:1055DC0004221A777B681B68DB6903F00303002B3A
:1055EC0003D07868FBF7C6F905E07868FBF726FA74
:1055FC00786800F07DFA7B6800221A777B681B685C
:10560C001B6903F01003102B22D17B681B68DB682D
:10561C0003F01003102B1BD17B681B686FF010027A
:10562C001A617B6808221A777B681B68DB6903F4B4
:10563C004073002B03D07868FBF79CF905E0786881
:10564C00FBF7FCF9786800F053FA7B6800221A77B4
:10565C007B681B681B6903F00103012B0ED17B686F
:10566C001B68DB6803F00103012B07D17B681B6807
:10567C006FF001021A617868FBF702F97B681B680E
:10568C001B6903F08003802B0ED17B681B68DB68E1
:10569C0003F08003802B07D17B681B686FF08002BE
:1056AC001A61786800F04FFE7B681B681B6903F079
:1056BC004003402B0ED17B681B68DB6803F0400372
:1056CC00402B07D17B681B686FF040021A61786829
:1056DC0000F017FA7B681B681B6903F02003202B72
:1056EC000ED17B681B68DB6803F02003202B07D1ED
:1056FC007B681B686FF020021A61786800F01AFE54
:10570C0000BF0837BD4680BD80B584B000AFF860DF
:10571C00B9607A60FB6893F83C30012B01D102230D
:10572C0046E0FB68012283F83C207B680C2B39D8BF
:10573C0001A252F823F000BF79570008B1570008B6
:10574C00B1570008B157000887570008B157000837
:10575C00B1570008B157000895570008B157000819
:10576C00B1570008B1570008A3570008FB681B6825
:10577C00B968184600F030FA15E0FB681B68B96888
:10578C00184600F08FFA0EE0FB681B68B9681846E3
:10579C0000F0F2FA07E0FB681B68B968184600F0E5
:1057AC0055FB00E000BFFB68002283F83C2000237F
:1057BC0018461037BD4680BD80B584B000AFF86088
:1057CC00B9607A60FB6893F83C30012B01D102235D
:1057DC0082E0FB68012283F83C207B68002B1BD104
:1057EC00FB681868BB681968BB685A68BB68DB68DB
:1057FC0000F07AFBFB681B689A69FB681B6822F057
:10580C000C029A61FB681B689969BB689A68FB6813
:10581C001B680A439A615AE07B68042B1CD1FB6815
:10582C001868BB681968BB685A68BB68DB6800F00D
:10583C00E3FBFB681B689A69FB681B6822F44062F7
:10584C009A61FB681B689969BB689B681A02FB68C4
:10585C001B680A439A613AE07B68082B1BD1FB68F2
:10586C001868BB681968BB685A68BB68DB6800F0CD
:10587C002EFCFB681B68DA69FB681B6822F00C02C3
:10588C00DA61FB681B68D969BB689A68FB681B689E
:10589C000A43DA611BE0FB681868BB681968BB68CF
:1058AC005A68BB68DB6800F04DFCFB681B68DA6962
:1058BC00FB681B6822F44062DA61FB681B68D969DB
:1058CC00BB689B681A02FB681B680A43DA61FB68B9
:1058DC00002283F83C20002318461037BD4680BDBB
:1058EC0080B584B000AF786039607B6893F83C3049
:1058FC00012B01D10223B3E07B68012283F83C2009
:10590C007B68022283F83D207B681B689B68FB60E8
:10591C00FB6823F07703FB60FB6823F47F43FB6099
:10592C007B681B68FA689A603B681B68B3F5005F7C
:10593C003ED0B3F5005F00F28780B3F5805F00F0D6
:10594C008580B3F5805F7FD8702B1AD0702B7BD8F5
:10595C00602B50D0602B77D8502B3CD0502B73D869
:10596C00402B58D0402B6FD8302B64D0302B6BD8B9
:10597C00202B60D0202B67D8002B5CD0102B5AD05A
:10598C0062E07B6818683B6899683B685A683B68BA
:10599C00DB6800F02DFC7B681B689B68FB60FB6878
:1059AC0043F07703FB607B681B68FA689A604EE0F3
:1059BC007B6818683B6899683B685A683B68DB6889
:1059CC0000F016FC7B681B689A687B681B6842F4C5
:1059DC0080429A603BE07B6818683B6859683B687A
:1059EC00DB681A4600F0DAFA7B681B68502118460F
:1059FC0000F0E4FB2BE07B6818683B6859683B6857
:105A0C00DB681A4600F034FB7B681B686021184683
:105A1C0000F0D4FB1BE07B6818683B6859683B6856
:105A2C00DB681A4600F0BAFA7B681B6840211846FE
:105A3C0000F0C4FB0BE07B681A683B681B681946D6
:105A4C00104600F0BBFB02E000BF00E000BF7B682B
:105A5C00012283F83D207B68002283F83C20002340
:105A6C0018461037BD4680BD80B485B000AF786055
:105A7C0039600023FB603B680C2B31D801A252F833
:105A8C0023F000BFC55A0008ED5A0008ED5A000873
:105A9C00ED5A0008CF5A0008ED5A0008ED5A0008DC
:105AAC00ED5A0008D95A0008ED5A0008ED5A0008C2
:105ABC00ED5A0008E35A00087B681B685B6BFB60BF
:105ACC000FE07B681B689B6BFB600AE07B681B68C4
